:020000040000FA
:100000008A0115288A010F3982073034313432349D
:100010003334343435343634373438343934413485
:10002000423443344434453446348B13831603132B
:100030000A3099002430980006309F003730850040
:10004000FF3086008312031385110612903098004A
:10005000AD01AE01B001B401B6010D3050213E300A
:10006000502168218C1E3A281A084720B500023C0E
:1000700003192D283608013C031D312805183128A5
:100080007B21162131288D304C3012300330B500E1
:10009000083C031D5628340803190034B403083003
:1000A00050212030502108305021003435080D3CBB
:1000B000031DC7289030840083170008633C031D8C
:1000C00067280130B6000D305021B401003400081B
:1000D000743C031DBF28341CBB28B701370A3707FF
:1000E000340203198D28370837073E39913E8400C2
:1000F00083170008DD200318BB28A400A40E840A7F
:100100000008DD200318BB28A4043708103E840033
:10011000831724088000B70A6E28103084008317E4
:100120003708F72020088000840A21088000023068
:10013000B707D030051C9928013E051C9928051CDD
:100140009928031D9A283708FC21A400023C0319B2
:1001500099280D3050212418B3284E3050214F30AB
:1001600050212030502141305021433050214B301C
:100170005021B40102343F305021B40102340D301B
:1001800050213F3050210D305021B4010234350848
:100190001B3C031DD1283608031900340030B6007B
:1001A00002343408203C031901343408903E8400A2
:1001B0008317B40A350880005029B8002F3C031873
:1001C000F5283808393C031CE92830303802031080
:1001D00008003808403C0318F5283808463C031C42
:1001E000F528373038020310080003140034A30048
:1001F000FF30A100A0000830A200000D800DA10D6D
:10020000A00D0130A01BA1060F302118A0069C30C4
:100210002118A106A20BFD28840AA30BFB28FF309E
:10022000A006A1060310A10DA00D08008317103031
:100230008400B20000083F39B1000230B102B20AB6
:10024000320884008317000EB300022050213208C8
:10025000123C031D3C29203050215230B31E573030
:1002600050214130331F2D3050215430331E2D305A
:100270005021203050214229320884008317000881
:1002800002205021B20AB10B202920305021103019
:1002900084002D30801F413050210D305021080046
:1002A000AF002D0883160319981C5A2983122F08B2
:1002B000990000348312403C0319013430083F395F
:1002C000303E840083172F088000B00AAD0A003446
:1002D0008316831798186E298312043483122D080D
:1002E000031903342E083F39303E8400000899007A
:1002F000AE0AAD0300340130AB00E030013E03191B
:100300000334051C7E2906160612E930051C033449
:10031000013E031D862906160830A90006120C307E
:10032000AA00AA0B9129050C0616A90D00000612B9
:100330006821033E291E90290030291CB629051C7E
:10034000E729051CE729051CE729051CE729051CE9
:10035000E729051CE729051CE729051CE729051CD9
:10036000E729051CE729051CE72905340518E729B5
:100370000518E7290518E7290518E7290518E729C9
:100380000518E7290518E7290518E7290518E729B9
:100390000518E7290518E7292B0C1F39103E8400A2
:1003A0008317800E29080F398004103084001B3019
:1003B000AA00AA0BD9290030061605188030800043
:1003C00006122B0C3F398004801F013400342B0CA3
:1003D0001F39103E840083172B1C8001800E2908D2
:1003E0000F398004AB0A2B08403C0319023401305A
:1003F000A9006821053E9029A400A40AA40D241098
:1004000006160000000006120F30840083170E301D
:10041000A50000000000A50E2508A6002418840AE7
:1004200000082418A500260C260D013AA600240376
:1004300003192610A7010230A800A80B1D2A261AAE
:10044000262A01308515A70AA60D2A2A8511A70A92
:10045000A60D050801390319023408302719271C95
:100460001C2AA40B092A0830A800A80B352A000072
:1004700085111430A800A80B3B2A051C0134003458
:02400E00F23F7F
:00000001FF
