:020000040000FA
:0400000005EF00F018
:080008001100948E949C900EEF
:10001000AB6E260EAC6EB06AB886560EAF6EAE50A2
:10002000AE50900EAB6E260EAC6EB06AB8960A0E4D
:10003000AF6ECA6AFF0ECB6E0F0EC16E948A948C9F
:10004000948E9498939A9398939693949392939072
:1000500094909492949494968192819481968198AC
:1000600081900B680C6824EC01F0046A0000000029
:10007000819A829483B43AEF00F09FEC00F083B44D
:1000800035EF00F09FEC00F083B435EF00F09FEC0B
:1000900000F083B435EF00F083A44CEF00F09FEC48
:1000A00000F083A435EF00F09FEC00F083A435EF5F
:1000B00000F09FEC00F083A435EF00F0040083B45F
:1000C0005FEF00F083A462EF00F09FEC00F0818A04
:1000D00001EE00F0A5EC00F0EF6A828083B4EF86B9
:1000E00082909FEC00F0828083B4EF8482909FEC3A
:1000F00000F0828083B4EF8282909FEC00F08280D7
:1001000083B4EF808290CC6ACA84EFA08DEF00F0B8
:1001100083B488EF00F090EF00F083A48DEF00F03F
:10012000CA94500ECC609AEF00F0E92AABEC00F0D4
:100130006AEF00F00000CBEC00F035EF00F0180E95
:10014000006E002EA1EF00F012000A0E006E002ECD
:10015000A7EF00F01200130E006E002EADEF00F0BE
:10016000000000000000000000001200026E0908FC
:1001700002E7070E0226300E0224AD6E1200026E58
:10018000090802E7070E0226300E0224ACA2C6EFD1
:1001900000F0AD6E120001EE00F0090EEE621200EA
:1001A0000C0EEE621200040EEE621200EE5005C05C
:1001B00007F006C008F0EECF05F0053AEE50051244
:1001C000EECF06F0063AEE50061205BE10EF01F033
:1001D00005BC14EF01F005B618EF01F005B41CEFF3
:1001E00001F005B20CEF01F00B680C6824EC01F093
:1001F00005380F0B300FACA2FBEF00F0AD6E0550D1
:100200000F0B300FACA202EF01F0AD6E0A0EACA2E4
:1002100007EF01F0AD6E1200080E0C6E1EEF01F03C
:10022000280E0C6E1EEF01F0390E0C6E1EEF01F061
:10023000500E0C6E1EEF01F0720E0C6E000E0B6E67
:1002400024EC01F0F8EF00F08184819081928182AA
:10025000080E0A6E819281900BBE818081820B46CE
:100260000A2E2AEF01F0080E0A6E819281900CBED0
:10027000818081820C460A2E35EF01F081948192B3
:040280008190120057
:020000040030CA
:03000100060112E3
:020005008281F6
:060008000F400F600F40E5
:00000001FF
