:040000008A014D28FC
:08000800F100030EF2000408F0
:10001000F3000A08F4008A01831203130616000095
:1000200006128B1C1828F5228B10803091008C1042
:100030008C1C3128A91F2A2829081F39E5238C1078
:10004000AC00AA0B242828282C08023C03193128CC
:100050002C08A900831603138C10831203138C1031
:10006000920174088A0073088400720E8300F10EF6
:10007000710E09008A010F3982073034313432346D
:100080003334343435343634373438343934413415
:10009000423443344434453446348B1383160313BB
:1000A0000A3099002430980006309F0037308500D0
:1000B000EF308600011383120313903098008312EF
:1000C0000313B901BA01BC01C201C5011030AF0070
:1000D000C300831203179001B001D00183160317E8
:1000E000FF309000F0309100831203130D30B30005
:1000F0009030840083170008B200840A0008F039A9
:10010000B100FF30B500B400FF30B700B6000B17E8
:100110000B168B170D3083223E308322A2228312CE
:100120000313981C9528181218168C1E9D281A085F
:10013000B920C400023C03198A2845080F39013C44
:10014000031D8E2843088400831700080319B12873
:10015000430817224308031C4022430884008317E6
:1001600080012030C3074308703C10300319C300DE
:100170008E28C400083C031DC82842080319003417
:10018000C2030830832220308322083083220034C7
:1001900044080D3C031D7729C030840083130008F8
:1001A000633C031DE1280130C5000D308322F62198
:1001B000831203179001B001D00183120313C2010F
:1001C00000340008743C031D1B299621C600C200A0
:1001D00003181729831603132108FC390838A100D6
:1001E000831203134608D322A4000F39043C031DD5
:1001F00005290D30832224087039402224087039E3
:10020000840083178001C20102340D308322241838
:100210000F294E3083224F308322203083224130F9
:100220008322433083224B308322C20102343F3089
:100230008322C20102340008723C031D2A29962140
:10024000C60003181729831603130F30A104831265
:100250000313F22800082D3C031D5C299621C600DB
:100260000318172946181729C2014208B522031995
:100270003E29C20AC20A421B1729352983160313D5
:100280002008BF22831203178D0A83160313210847
:10029000BF22831203178D0A0D1B55290301BF22AC
:1002A000831203178D0A0301BF2220308322F62117
:1002B00083120313C201023400082B3C031D6F2973
:1002C000831203178D010301BF22831203178D0AC6
:1002D0000301BF2283120313F621C20102340D3041
:1002E00083223F3083220D308322C201023444082E
:1002F0001B3C031D81294508031900340030C5004B
:1003000002344408A73C031D88294F30B10600344D
:100310004208203C031901344208C03E8400831384
:10032000C20A44088000832A421C1729C601421CC5
:10033000B829460A460742020319BA294608460761
:100340003E39C13E840083130008BD210318B8293B
:10035000A400A40E840A0008BD210318B829A4042F
:100360004608A03E8400831324088000C60A992909
:1003700003140800460803100800C7002F3C0318A8
:10038000D5294708393C031CC929303047020310DE
:1003900008004708403C0318D5294708463C031C81
:1003A000D529373047020310080003140034A30096
:1003B000FF30A100A0000830A200000D800DA10DAB
:1003C000A00D0130A01BA1060F302118A0069C3003
:1003D0002118A106A20BDD29840AA30BDB29FF301B
:1003E000A006A1060310A10DA00D0800C20128302F
:1003F00083224208B5220319122ABE00C2082C30FB
:10040000031D83223E0E3A2083223E083A20832297
:10041000C20A4208B522BE003E0E3A208322C20A1A
:10042000421FF929293083220D3083220800C100A0
:10043000013E84008317031783128D0183168C13EA
:100440000C1483120C08031303193B2A0002C0008A
:100450000317840A8D0A83168C130C148312000868
:10046000F0390C020313400403193D2A03178403D7
:100470008D0A0D1F1E2A031008000314080008002F
:10048000C100831741088400BE000008C0001F3966
:10049000BD000230BD02031C080003190800BE0A9B
:1004A0003E0884008317000EBF003A2083224108D3
:1004B000023E3E02031D6F2A2030401B3E30832245
:1004C0005230BF1E5730832241303F1F2D308322D0
:1004D00054303F1E2D30832220308322752A3E085F
:1004E0008400831700083A208322BE0ABD0B502ADD
:1004F00020308322410884002D30801F4130832228
:100500000D3083220800BB00390883160319981C9C
:100510008F2A83123B0899000034A22239088312E3
:10052000403C03198D2A3C083F39B03E84008317B4
:100530003B08800083160C128312BC0AB90A83168A
:1005400083120034831683179818A82A8312043460
:1005500083123908031903343A083F39B03E840046
:1005600000089900BA0AB9030034031783128D00FA
:1005700083168C130C1483120C0803130800031742
:1005800083128C0083168C130C158B1355308D0041
:10059000AA308D008C1400008C18CB2A8B170C11FC
:1005A000031383120800C600A0308400831346089A
:1005B000D72120088000840A210880000230C60765
:1005C00046088038A9009201803091008C100830D4
:1005D000AA00831603138C148312031305309200B0
:1005E0000000A91BF02A290808000616A40106121B
:1005F0000830A6000330A700B0170130AD00E0308E
:10060000013E03190334051C002B06160612E930BF
:10061000051C0334013E031D082B06160830AB00F1
:1006200006120C30AC00AC0B132B050C0616AB0DF0
:10063000000006120B302B1E122BB01FDB2B2B1CC5
:10064000382B051CB72B051CB72B051CB72B051C1D
:10065000B72B051CB72B051CB72B051CB72B051C8E
:10066000B72B051CB72B051CB72B051CB72B053466
:100670000518B72B0518B72B0518B72B0518B72B7E
:100680000518B72B0518B72B0518B72B0518B72B6E
:100690000518B72B0518B72B0518B72B2D0C1F39CC
:1006A0002F0784008317800E2B080F3980042F0832
:1006B0008400840AB80135080002031D3814370885
:1006C0000002031DB814840A0008F0393402031D27
:1006D00038140008F0393602031DB8140019381513
:1006E000840384033808381D03300339033C031D99
:1006F000992B2408031D992B0F30AC00AC0B7E2BDB
:10070000003006160518803080000612381C0017CD
:10071000B81C0017AC01801FAC0A2D0C3F398004B7
:100720002030AF072F08703C10300319AF002C08A1
:1007300008000430AC00AC0B9B2B85150D30AC00D1
:10074000AC0BA02B8511800124080319862B83167E
:1007500003132008840A80002108840A800084038F
:1007600084038312031304302F04AC008D2B2D0C53
:100770001F392F07840083172D1C8001800E2B0842
:100780000F398004AD0A2D08403C031902340130B2
:10079000AB00053E2D08053CB00084030008320282
:1007A000B004840A000E3102B004031DB01703190F
:1007B000AB0D0730122B92308400831733083307B8
:1007C000013EA4000008A500082CA400A40AA40D62
:1007D000241006160000000006129F3084008313C8
:1007E0000E30A50000000000A50E2508A600241864
:1007F000840A00082418A500260C260D013AA6003C
:10080000240303192610A7010230A800A80B062C08
:10081000261A112C01308515A70AA60D000000002C
:10082000172C8511A70AA60D000000000508013944
:1008300003192E2C000007302719271C052CA40BA8
:10084000F22B0830A800A80B232C000085111430CF
:10085000A800A80B292C051C013400340408A23C74
:10086000031D02342708043C031D023406168001D0
:0E0870000530AD000830AB0006120130122B2F
:02400E00F23F7F
:0442000000000000BA
:00000001FF
