:020000040000FA
:040000008A014D28FC
:08000800F100030EF2000408F0
:10001000F3000A08F4008A01831203130616000095
:1000200006128B1C1828F7228B10803091008C1040
:100030008C1C3128A91F2A2829081F39E7238C1076
:10004000AC00AA0B242828282C08023C03193128CC
:100050002C08A900831603138C10831203138C1031
:10006000920174088A0073088400720E8300F10EF6
:10007000710E09008A010F3982073034313432346D
:100080003334343435343634373438343934413415
:10009000423443344434453446348B1383160313BB
:1000A0000A3099002430980006309F0037308500D0
:1000B000EF308600011383120313903098008312EF
:1000C0000313B901BA01BC01C2010130C5001030EF
:1000D000AF00C300831203179001B001D001831653
:1000E0000317FF309000F0309100831203130D309E
:1000F000B3009030840083170008B200840A00081F
:10010000F039B1008E30B500C030B400FF30B70018
:10011000B6000B170B168B170D3085223E3085224B
:10012000A42283120313981C9728181218168C1EE9
:100130009F281A08BB20C400023C03198C284508DC
:100140000F39013C031D90284308840083170008E1
:100150000319B328430819224308031C4222430809
:100160008400831780012030C3074308703C10309F
:100170000319C3009028C400083C031DCA28420884
:1001800003190034C203083085222030852208304C
:100190008522003444080D3C031D7929C0308400B9
:1001A00083130008633C031DE3280130C5000D30B4
:1001B0008522F821831203179001B001D001831228
:1001C0000313C20100340008743C031D1D2998214B
:1001D000C600C20003181929831603132108FC392D
:1001E0000838A100831203134608D522A4000F3952
:1001F000043C031D07290D30852224087039422252
:1002000024087039840083178001C20102340D3044
:100210008522241811294E3085224F308522203026
:10022000852241308522433085224B308522C20110
:1002300002343F308522C20102340008723C031DA3
:100240002C299821C60003181929831603130F308F
:10025000A10483120313F42800082D3C031D5E291A
:100260009821C6000318192946181929C201420805
:10027000B72203194029C20AC20A421B1929372989
:10028000831603132008C122831203178D0A8316D5
:1002900003132108C122831203178D0A0D1B57294E
:1002A0000301C122831203178D0A0301C1222030EA
:1002B0008522F82183120313C201023400082B3C6B
:1002C000031D7129831203178D010301C1228312BB
:1002D00003178D0A0301C12283120313F821C201FF
:1002E00002340D3085223F3085220D308522C20137
:1002F000023444081B3C031D8329450803190034BC
:100300000030C50002344408A73C031D8A294F3041
:10031000B10600344208203C031901344208C03EB3
:1003200084008313C20A44088000852A421C1929CC
:10033000C601421CBA29460A460742020319BC29D3
:10034000460846073E39C13E840083130008BF219A
:100350000318BA29A400A40E840A0008BF210318B8
:10036000BA29A4044608A03E840083132408800010
:10037000C60A9B2903140800460803100800C7009A
:100380002F3C0318D7294708393C031CCB293030B0
:100390004702031008004708403C0318D7294708C4
:1003A000463C031CD72937304702031008000314CA
:1003B0000034A300FF30A100A0000830A200000D0F
:1003C000800DA10DA00D0130A01BA1060F3021183A
:1003D000A0069C302118A106A20BDF29840AA30BDA
:1003E000DD29FF30A006A1060310A10DA00D080015
:1003F000C201283085224208B7220319142ABE0000
:10040000C2082C30031D85223E0E3A2085223E086C
:100410003A208522C20A4208B722BE003E0E3A2088
:100420008522C20A421FFB29293085220D308522F0
:100430000800C100013E84008317031783128D0159
:1004400083168C130C1483120C08031303193D2A12
:100450000002C0000317840A8D0A83168C130C1443
:1004600083120008F0390C020313400403193F2AD9
:10047000031784038D0A0D1F202A0310080003149C
:1004800008000800C100831741088400BE0000086E
:10049000C0001F39BD000230BD02031C0800031953
:1004A0000800BE0A3E0884008317000EBF003A20F1
:1004B00085224108023E3E02031D712A2030401B66
:1004C0003E3085225230BF1E5730852241303F1FBB
:1004D0002D30852254303F1E2D308522203085223C
:1004E000772A3E088400831700083A208522BE0A36
:1004F000BD0B522A20308522410884002D30801FF8
:10050000413085220D3085220800BB003908831652
:100510000319981C912A83123B0899000034A422E5
:1005200039088312403C03198F2A3C083F39B03EFA
:10053000840083173B08800083160C128312BC0AC8
:10054000B90A831683120034831683179818AA2ACF
:100550008312043483123908031903343A083F39EB
:10056000B03E840000089900BA0AB90300340317AA
:1005700083128D0083168C130C1483120C08031342
:100580000800031783128C0083168C130C158B1331
:1005900055308D00AA308D008C1400008C18CD2AA7
:1005A0008B170C11031383120800C600A0308400BF
:1005B00083134608D92120088000840A210880007E
:1005C0000230C60746088038A900920180309100A9
:1005D0008C100830AA00831603138C1483120313A3
:1005E000053092000000A91BF22A2908080006160F
:1005F000A40106120830A6000330A700B01701308E
:10060000AD00E030013E03190334051C022B061631
:100610000612E930051C0334013E031D0A2B0616A1
:100620000830AB0006120C30AC00AC0B152B050CDF
:100630000616AB0D000006120B302B1E142BB01F3C
:10064000DD2B2B1C3A2B051CB92B051CB92B051CCB
:10065000B92B051CB92B051CB92B051CB92B051C86
:10066000B92B051CB92B051CB92B051CB92B051C76
:10067000B92B05340518B92B0518B92B0518B92B5A
:100680000518B92B0518B92B0518B92B0518B92B66
:100690000518B92B0518B92B0518B92B0518B92B56
:1006A0002D0C1F392F0784008317800E2B080F395C
:1006B00080042F088400840AB80135080002031D55
:1006C000381437080002031DB814840A0008F039F2
:1006D0003402031D38140008F0393602031DB81423
:1006E00000193815840384033808381D0330033992
:1006F000033C031D9B2B2408031D9B2B0F30AC00D8
:10070000AC0B802B003006160518803080000612D6
:10071000381C0017B81C0017AC01801FAC0A2D0C48
:100720003F3980042030AF072F08703C1030031988
:10073000AF002C0808000430AC00AC0B9D2B8515D5
:100740000D30AC00AC0BA22B8511800124080319DD
:10075000882B831603132008840A80002108840A4A
:100760008000840384038312031304302F04AC003D
:100770008F2B2D0C1F392F07840083172D1C800110
:10078000800E2B080F398004AD0A2D08403C031958
:1007900002340130AB00053E2D08053CB000840357
:1007A00000083202B004840A000E3102B004031DB6
:1007B000B0170319AB0D0730142B92308400831748
:1007C00033083307013EA4000008A5000A2CA4004A
:1007D000A40AA40D241006160000000006129F3083
:1007E000840083130E30A50000000000A50E25082C
:1007F000A6002418840A00082418A500260C260D3B
:10080000013AA600240303192610A7010230A8000C
:10081000A80B082C261A132C01308515A70AA60D43
:1008200000000000192C8511A70AA60D0000000089
:10083000050801390319302C000007302719271C3F
:10084000072CA40BF42B0830A800A80B252C0000C3
:1008500085111430A800A80B2B2C051C0134003482
:100860000408A23C031D02342708043C031D023483
:10087000061680010530AD000830AB0006120130CD
:02088000142B37
:02400E00F23F7F
:0442000000000000BA
:00000001FF
