:020000040000FA
:040000008A015D28EC
:08000800F100030EF2000408F0
:10001000F3000A08F4008A01831203130616000095
:1000200006128B1C1828FC238B10803091008C103A
:100030008C1C3128A91F2A2829081F3913258C1048
:10004000AC00AA0B242828282C08023C03193128CC
:100050002C08A900831603138C10831203138C1031
:1000600092010C1C412810100B308F00DC308E00E8
:1000700010140C10C10AC119C11C4128F030C1056F
:10008000C11774088A0073088400720E8300F10E91
:10009000710E09008A010F3982073034313432344D
:1000A00033343434353436343734383439344134F5
:1000B000423443344434453446348B13831603139B
:1000C0000A3099002430980006309F0037308500B0
:1000D000EF30860001130C148312031385110612EE
:1000E00090309800831203138B13C201C301C50122
:1000F000CB010130CE001030B000CC0083120317CA
:100100009001B001D00183120313BA01BB01BC01FD
:10011000BD01C001C1010130BE004130BF0003304C
:10012000AE008E30B600C030B500FF30B800B7006A
:100130004B21313090000B170B168B170D308A2393
:100140003E308A234E08013C2330031C8A23E120E1
:10015000A923831203138C1EB3281A08B921CD00DA
:10016000023C03199E284E080F39013C031DA228AA
:100170004C088400831700080319D928001FCA28D7
:10018000033084070008BA00840A0008BB00052178
:100190004C0884004C0819234C08031C47234C08C6
:1001A0008400831780018B1303302E02031DAE0AD7
:1001B0008B172030CC074C08703C10300319CC0052
:1001C000A728C11F0800C1133F08D33C031DEA281C
:1001D000C330BF003F08C33C031D0800BD0A3D08F3
:1001E0000A3C031DF428BD01C00A4B2183160313EA
:1001F0008C30C4004C30C5009630C6008312031307
:100200000330CF00CB00D200DA2B3A083B040319AD
:1002100008003A08113C031D20293B08813C031DBE
:100220001329C13045293B08833C031D1929D330CC
:1002300045293B08013C031D1F294130452942291E
:100240003A08413C031D42293B08FE3C031D2E2970
:10025000BE0306300319BE00D33045293B08FF3CDE
:10026000031D3A29BE0A3E08073C01300319BE00AF
:10027000D33045293B03053C031C42293B08BE0003
:10028000D3304529BA01BB010800BF00C00ABA013A
:10029000BB014B21F628903084008317831203138F
:1002A0004E308000A921840ACE308000A921840A22
:1002B00040080739803E8000A921840A0030800070
:1002C000A921840A3F088000A921840A16308000F1
:1002D000A921840A3C0880003F08D33CFF30031961
:1002E0008000A921840A3D0880003F08D33CFF30EC
:1002F00003198000A921840A01308000A921840A01
:100300003E088000A921840A18308000A921840AAF
:1003100000308000A921840A3F308000A921840A8E
:1003200040080739803E8000A9210E30B40090308B
:10033000840083170008B300840A0008F039B20073
:1003400084033408D92220088000840A2108800010
:10035000080008000408F800000E4A208A237808E4
:100360008400831700084A208A23780884008317B2
:100370000800CD00083C031DC8294B0803190034B0
:10038000CB0308308A2320308A2308308A230034A4
:100390004D080D3C031D802AA03084008313000803
:1003A000633C031DE4290130CE000D308A23F8227E
:1003B000831203179001B001D0018312031303309D
:1003C000AE00F701CB0100340008743C031D1F2A66
:1003D0009822CF00CB0003181B2A8316031345086D
:1003E000FC390838C500831203134F08D200DA2302
:1003F000A4000F39043C031D092A0D308A23240868
:100400007039472324087039840083178001CB0199
:1004100002340D308A232418132A4E308A234F3099
:100420008A2320308A2341308A2343308A234B3069
:100430008A23CB0102343F308A23CB0102340008E7
:10044000723C031D2E2A9822CF0003181B2A831604
:1004500003130F30C50483120313F52900082D3C44
:10046000031D602A9822CF0003181B2A4F181B2A4D
:10047000CB014B08BC230319422ACB0ACB0A4B1BE6
:100480001B2A392A831603134408C6238312031731
:100490008D0A831603134508C623831203178D0A9A
:1004A0000D1B592A0301C623831203178D0A03016A
:1004B000C62320308A23F82283120313CB0102348F
:1004C00000082B3C031D732A831203178D010301BF
:1004D000C623831203178D0A0301C6238312031355
:1004E000F822CB01023400082A3C031D782A02348A
:1004F0000D308A233F308A230D308A23CB0102340A
:100500004D081B3C031D8A2A4E0803190034003095
:10051000CE0002344B08243C031901344B08A03EA2
:1005200084008313CB0A4D0880008A2B4B1C1B2AA6
:10053000CF014B1CBA2A4F0A4F074B020319BC2AA2
:100540004F084F073E39A13E840083130008BF22A5
:100550000318BA2AA400A40E840A0008BF220318B4
:10056000BA2AA4044F08C43E8400831324088000E0
:10057000CF0A9B2A031408004F0803100800D0007C
:100580002F3C0318D72A5008393C031CCB2A3030A3
:100590005002031008005008403C0318D72A5008A6
:1005A000463C031CD72A37305002031008000314BE
:1005B0000034A300FF30A100A0000830A200000D0D
:1005C000800DA10DA00D0130A01BA1060F30211838
:1005D000A0069C302118A106A20BDF2A840AA30BD7
:1005E000DD2AFF30A006A1060310A10DA00D080012
:1005F000CB0128308A234B08BC230319142BC700D6
:10060000CB082C30031D8A23470E4A208A23470833
:100610004A208A23CB0A4B08BC23C700470E4A2036
:100620008A23CB0A4B1FFB2A29308A230D308A23C9
:100630000800CA00013E84008317031783128D014E
:1006400083168C130C1483120C08031303193F2B0D
:100650000002C9000317840A8D0A83168C130C1438
:1006600083120008F0390C060313CA00F03949045C
:100670000319432B031784038D0A0D1F202B03102E
:10068000CA19031408000314CA1903100800CA0089
:1006900083174A088400C7000008C9001F39C60034
:1006A0000230C602031C080003190800C70A4708E5
:1006B00084008317000EC8004A208A234A08023E9D
:1006C0004702031D762B2030491B3E308A235230CF
:1006D000C81E57308A234130481F2D308A2354309A
:1006E000481E2D308A2320308A237C2B4708840023
:1006F000831700084A208A23C70AC60B572B2030CD
:100700008A234A0884002D30801F41308A230D300F
:100710008A230800C400420883160319981C962BEC
:100720008312440899000034A92342088312403CF4
:100730000319942B45083F39B03E840083174408C1
:10074000800083160C128312C50AC20A8316831214
:100750000034831683179818AF2B83120434831246
:1007600042080319033443083F39B03E84000008AF
:100770009900C30AC2030034031783128D00831645
:100780008C130C1483120C08031308000317831234
:100790008C0083168C130C158B1355308D00AA30EA
:1007A0008D008C1400008C18D22B8B170C110313A6
:1007B00083120800CF00C430840083134F08D9226D
:1007C00020088000840A210880000230CF074F08EB
:1007D0008038A9009201803091008C100830AA0066
:1007E000831603138C148312031305309200000048
:1007F000A91BF72B290808000616A40106120830C9
:10080000A6000330A700B1170130AD00E030013E73
:1008100003190334051C072C06160612E930051CC3
:100820000334013E031D0F2C06160830AB000612E0
:100830000C30AC00AC0B1A2C050C0616AB0D0000EE
:100840000612033E0B302B1E192CB11F092D2B1C39
:10085000402C051CD42C051CD42C051CD42C051CA8
:10086000D42C051CD42C051CD42C051CD42C051C04
:10087000D42C051CD42C051CD42C051CD42C0534DC
:100880000518D42C0518D42C0518D42C0518D42CF4
:100890000518D42C0518D42C0518D42C0518D42CE4
:1008A0000518D42C0518D42C0518D42C2D0C1F3960
:1008B00030078400AE0803198401800E2B080F391D
:1008C0008004300AAE08031975308400B901750838
:1008D00080003602031D391438087502031DB9144F
:1008E000840A0F30800576083502031D3914760816
:1008F00080043702031DB9143908001D0330840336
:100900008403033C031DB02C2408031DB02C0E30BF
:10091000AC00AC0B892C0030061605188030800026
:100920000612391C0017B91C0017AC01801FAC0A55
:10093000AE08031D9E2C770A031DF70AAE080319A3
:10094000061603190534AE032D0C3F398004203000
:10095000B0073008703C10300319B0002C080800B4
:100960000230AC00AC0BB22C0000AE08031D8515A4
:100970000D30AC00AC0BBA2C851180012408031992
:10098000912CAE0803190534831603134408840A16
:1009900080004508840A80008403840383120313C3
:1009A00004303004AC00A42C2D0C1F3984008317B4
:1009B0002D08043CB1007430031C30088407B11BBF
:1009C000AE0803198401310A031980012B080F397D
:1009D0002D1C8001800E80040130AB00AD0A2D1B60
:1009E00002340000000031080630031DB117031D5A
:1009F000192C75083302B104F60E76083202B104E0
:100A0000031DB11703100319AB0D013000000000E6
:100A1000192C92308400831734083407013EA40057
:100A20000008A500362DA400A40AA40D2410061663
:100A3000000000000612C330840083130E30A500AE
:100A400000000000A50E2508A6002418840A00084E
:100A50002418A500260C260D013AA600240303192C
:100A60002610A7010230A800A80B342D261A3F2D0E
:100A700001308515A70AA60D00000000452D85113F
:100A8000A70AA60D000000000508013903195C2D16
:100A9000000007302719271C332DA40B202D083008
:100AA000A800A80B512D000085111430A800A80B38
:100AB000572D051C013400340408C63C031D0234C4
:100AC0002708043C031D0234061680010530AD00E2
:0A0AD0000830AB0006120130192CAB
:02400E00323F3F
:00000001FF
