:020000040000FA
:0400000005EF00F018
:080008001100948E949C900EEF
:10001000AB6E260EAC6EB06AB886560EAF6EAE50A2
:10002000AE50900EAB6E260EAC6EB06AB896040E53
:10003000AF6ECA6AFF0ECB6E0F0EC16E9398948A94
:1000400094889382938094909492949494969396A7
:10005000939A046A81968198819A829481B22EEF54
:1000600000F0A3EC00F081B229EF00F0A3EC00F067
:1000700081B229EF00F0A3EC00F081B229EF00F08B
:1000800081A240EF00F0A3EC00F081A229EF00F084
:10009000A3EC00F081A229EF00F0A3EC00F081A214
:1000A00029EF00F0818681B253EF00F081A256EF74
:1000B00000F0A3EC00F0818A01EE00F0A9EC00F062
:1000C000EF6A828081B2EF868290A3EC00F082809A
:1000D00081B2EF848290A3EC00F0828081B2EF8243
:1000E0008290A3EC00F0828081B2EF808290EF508A
:1000F000BAEC00F0CC6ACA84EFA084EF00F081B2C1
:100100007FEF00F087EF00F081A284EF00F0CA9447
:10011000500ECC6090EF00F0AFEC00F05CEF00F020
:100120008188A3EC00F0A9EC00F04E0E81A2410EF4
:10013000ACA298EF00F0AD6E0A0EACA29DEF00F0FD
:10014000AD6E29EF00F0180E006E002EA5EF00F046
:1001500012000A0E006E002EABEF00F01200130E1C
:10016000006E002EB1EF00F0000000000000000063
:1001700000001200026E090802E7070E0226300E88
:100180000224AD6E1200026E090802E7070E022675
:0E019000300E0224ACA2CAEF00F0AD6E1200D9
:020000040030CA
:03000100060000F6
:020005008281F6
:060008000FC00FE00F40E5
:00000001FF
