:020000040000FA
:0400000005EF00F018
:080008001100948E949CAE508F
:10001000AE50900EAB6E260EAC6EB06AB896040E63
:10002000AF6ECA6AFF0ECB6E0F0EC16E9398948AA4
:1000300094889382938094909492949494969396B7
:10004000939A046A81968198819A829481B226EF6C
:1000500000F09BEC00F081B221EF00F09BEC00F08F
:1000600081B221EF00F09BEC00F081B221EF00F0B3
:1000700081A238EF00F09BEC00F081A221EF00F0AC
:100080009BEC00F081A221EF00F09BEC00F081A23C
:1000900021EF00F0818681B24BEF00F081A24EEF9C
:1000A00000F09BEC00F0818A01EE00F0A1EC00F082
:1000B000EF6A828081B2EF8682909BEC00F08280B2
:1000C00081B2EF8482909BEC00F0828081B2EF825B
:1000D00082909BEC00F0828081B2EF808290EF50A2
:1000E000B2EC00F0CC6ACA84EFA07CEF00F081B2E1
:1000F00077EF00F07FEF00F081A27CEF00F0CA9470
:10010000500ECC6088EF00F0A7EC00F054EF00F048
:1001100081889BEC00F0A1EC00F04E0E81A2410E14
:10012000ACA290EF00F0AD6E0A0EACA295EF00F01D
:10013000AD6E21EF00F0180E006E002E9DEF00F066
:1001400012000A0E006E002EA3EF00F01200130E34
:10015000006E002EA9EF00F000000000000000007B
:1001600000001200026E090802E7070E0226300E98
:100170000224AD6E1200026E090802E7070E022685
:0E018000300E0224ACA2C2EF00F0AD6E1200F1
:020000040030CA
:03000100060000F6
:020005008281F6
:060008000FC00FE00F40E5
:00000001FF
